:100000000EC028C027C026C025C024C023C022C0DF
:1000100021C020C048C01EC01DC01CC01BC0112470
:100020001FBECFE5D2E0DEBFCDBF10E0A0E6B0E05E
:10003000E5E9F2E002C005900D92A037B107D9F7CB
:1000400020E0A0E7B0E001C01D92AC37B207E1F7B5
:10005000BFD0E7C0D5CF97B321E030E001C0220F79
:100060008A95EAF72095292327BBB19A089526B3EC
:1000700030E002C0359527958A95E2F7822F81708E
:1000800099270895F89481E08ABD89EF89BD8FEFA3
:1000900088BD12BE8AE188BF83B7836083BF80E1D9
:1000A00089BF789408951F921FB61F9211248F93D1
:1000B0009F93AF93BF938091780090917900A09126
:1000C0007A00B0917B000196A11DB11D809378004C
:1000D00090937900A0937A00B0937B00BF91AF9189
:1000E0009F918F911F901FBE1F901895F89460915B
:1000F00078007091790080917A0090917B007894DB
:10010000089597B321E030E001C0220F8A95EAF705
:10011000922B97BB0895CF93DF9300D000D000D0EF
:10012000CDB7DEB7842F5A836B837C83EADF8A8165
:10013000E8DF8B81E6DF8C810F900F900F900F909E
:100140000F900F90DF91CF91DCCF98B321E030E09A
:1001500001C0220F8A95EAF7922B98BB089598B3B5
:1001600021E030E001C0220F8A95EAF7209529238B
:1001700028BB0895CF93C82FE8DF2FEF83ED90E3DE
:10018000215080409040E1F700C000008C2FE7DF55
:100190002FEF83ED90E3215080409040E1F700C0C5
:1001A0000000CF9108959C018230910579F03CF4D4
:1001B000892B51F085E02130310539F0089584E034
:1001C0002330310511F0089582E0D4CF83E0FDCFD4
:1001D00059DF82E096DFC4E089DF462F572FBC014C
:1001E0008091700090917100A0917200B0917300A5
:1001F0008A019B01081B190B2A0B3B0BD901C80173
:10020000883E9340A105B10538F388B38C2788BB9D
:10021000409370005093710060937200709373006C
:06022000DBCFF894FFCFD4
:100226000E23003800504F525442000000000000D8
:1002360000000000000000000000000000000000B8
:1002460000000000000E2300530054434352304286
:100256000000000000000000000000000000000098
:10026600000000000000000000000E2300520054B1
:10027600434E543000000000000000000000000063
:0F02860000000000000000000000000000000069
:10029500580059004900520053004A003700380001
:00000001FF
