:100000000EC028C067C526C025C024C023C022C09A
:10001000E9C120C01FC01EC01DC01CC01BC01124D0
:100020001FBECFE5D2E0DEBFCDBF10E0A0E6B0E05E
:10003000E0E7FDE002C005900D92A637B107D9F7C1
:1000400020E0A6E7B0E001C01D92AB38B207E1F7AF
:10005000EAD58CC6D5CF9C012115310509F4089548
:1000600085E08A95F1F7000021503109F5CFCF9353
:10007000DF93CDB7DEB72C970FB6F894DEBF0FBE77
:10008000CDBF342F4F83588769877A878B879C87AA
:1000900047B381E090E0BC01032E01C0660F0A94D3
:1000A000EAF7462B47BB47B3052E01C0880F0A94D9
:1000B000EAF7982F9095942397BB98B3962B98BB0B
:1000C00098B3892B88BB3F83588786E0FE0137961B
:1000D000A6E7B0E001900D928A95E1F786E0E6E7A9
:1000E000F0E0DE01119601900D928A95E1F72981E9
:1000F0003A814B815C816D817E8180E090E02C961D
:100100000FB6F894DEBF0FBECDBFDF91CF9108953B
:100110006F927F928F929F92AF92BF92CF92DF9217
:10012000EF92FF920F931F93CF93DF93EC01062F73
:100130002A813B814C815D8160E472E48FE090E034
:10014000A3D549015A01390128B3388181E090E0F3
:1001500001C0880F3A95EAF78095822388BBC401D5
:100160007ADFE12CF12CCC24C394D12C10E08881CF
:10017000960102C0220F331F8A95E2F7C901980148
:100180000E2C02C0359527950A94E2F798B320FF0C
:1001900025C0892B88BBC3015EDF3FEFE31AF30A5A
:1001A00088E0E816F10419F788B3988121E030E07F
:1001B00001C0220F9A95EAF7822B88BBC401DF9118
:1001C000CF911F910F91FF90EF90DF90CF90BF9054
:1001D000AF909F908F907F906F903DCF80958923B7
:1001E000D9CF0F931F93CF93DF93182F092FEB01D4
:1001F0006991611105C0DF91CF911F910F91089511
:10020000812F902F85DFF4CF2F923F924F925F92F4
:100210006F927F928F929F92AF92BF92CF92DF9216
:10022000EF92FF920F931F93CF93DF93EC011B018B
:1002300049015A014A805B806C807D80C12CD12CA1
:100240007601C814D904EA04FB0411F480E03BC031
:1002500086B390E0298102C0959587952A95E2F7AB
:1002600080FD44C060E472E48FE090E0A30192015D
:100270000BD549015A013901C90196958795EBDEE5
:1002800000E010E0512CCC24C394D12CC301E3DE58
:1002900086B390E0298102C0959587952A95E2F76B
:1002A00080FF07C0C601002E01C0880F0A94EAF73C
:1002B000582A0F5F1F4F0830110541F7C401CBDEEC
:1002C000F101508281E0DF91CF911F910F91FF905A
:1002D000EF90DF90CF90BF90AF909F908F907F90E6
:1002E0006F905F904F903F902F90089581E090E045
:1002F000B2DEFFEFCF1ADF0AEF0AFF0AA2CF26B362
:1003000030E0FC018181A90102C0559547958A958D
:10031000E2F7CA018095909581700895CF93DF939D
:1003200000D000D000D0CDB7DEB7FC01AB0180E437
:10033000E130F10541F081E0E330F10509F080E0C2
:10034000879588278795806287B946B99F016D8117
:100350006E7F70E080E090E00F900F900F900F9014
:100360000F900F90DF91CF910895379A0895FC0177
:10037000379884818E7F84830895FC0187B1807FC4
:10038000682B67B9369A3699FECF84B195B115823C
:100390000895FC01848180FD09C087B1807F862B90
:1003A00087B9369A848181608483658381E090E097
:1003B0000895FC01DB0136990EC0349B0CC084B15A
:1003C00095B1109711F08D939C9384818E7F8483D7
:1003D00080E090E0089581E090E00895FC01848140
:1003E000817008958F939F9384B195B19F918F9160
:1003F00018951F93CF93DF93CDB7DEB765970FB6F0
:10040000F894DEBF0FBECDBF122F2F87232F388B5E
:10041000342F498B5A8B6B8B7C8B8D8B6A897B89B4
:1004200047B3E1E0F0E0CF01012E01C0880F0A944C
:10043000EAF7DF01022E01C0AA0F0A94EAF78A2B1D
:10044000982F942B97BB47B3032E01C0EE0F0A944D
:10045000EAF79E2F9095942397BB98E19DB962305F
:10046000710509F441C038F461157105D1F59DB1EC
:10047000977D9DB903C063307105C9F198B38E2B88
:100480008095892388BB1F87288B398B7B8B6A8B50
:1004900087E0FE013F96DE01189601900D928A9545
:1004A000E1F7188729873A877C876B8787E0FE0109
:1004B0003896DE01119601900D928A95E1F7298117
:1004C0003A814B815C816D817E818F8190E0659660
:1004D0000FB6F894DEBF0FBECDBFDF91CF911F9155
:1004E00008956D986B9ACACF9DB19862C2CF6D9AEC
:1004F0006B98C4CF6FB9000000000000000000003E
:100500000000000000008FB10895AF92BF92CF921B
:10051000DF92EF92FF920F931F93CF93DF93B82E4A
:10052000A92E8A016A01EB017B01E20EF31ECE15B2
:10053000DF0559F4DF91CF911F910F91FF90EF905C
:10054000DF90CF90BF90AF90089569918B2D9A2D39
:10055000D1DF0115110511F0F6018083FFEFCF1AED
:10056000DF0AE5CFEF92FF920F931F93CF93DF93B4
:10057000F82EE92EEB018B01040F151FC017D107D0
:1005800039F4DF91CF911F910F91FF90EF90089573
:1005900069918F2D9E2DAEDFF1CF0F931F93CF93D7
:1005A000DF93CDB7DEB762970FB6F894DEBF0FBE0C
:1005B000CDBF042F4D87152F5E876F87788B898B72
:1005C0009A8B87B321E030E0A901002E01C0440FCF
:1005D0000A94EAF7842B87BB57B3C901012E01C0E7
:1005E000880F0A94EAF7982F9095952397BB98B3B4
:1005F000842B8095892388BB88E38DB90D871E875E
:1006000086E0FE013D96DE01179601900D928A95D7
:10061000E1F70F83188786E0FE013796DE01119619
:1006200001900D928A95E1F729813A814B815C8195
:100630006D817E8180E090E062960FB6F894DEBF17
:100640000FBECDBFDF91CF911F910F910895FC0197
:1006500088B3908121E030E001C0220F9A95EAF73B
:10066000822B88BB84E195E09A95F1F700008A958A
:10067000D1F728B3308181E090E001C0880F3A952E
:10068000EAF78095822388BB80E090E00895FC0122
:1006900048B3808121E030E0B90102C0660F771FC6
:1006A0008A95E2F7CB01918101C0220F9A95EAF772
:1006B000822B8095842388BB80E090E008956FB9F9
:1006C000000000000000000000000000000000002A
:1006D00080E090E008958F929F92AF92BF92FF9238
:1006E0000F931F93CF93DF93EC016FB900000000CD
:1006F00000000000000000000000000028B3398165
:1007000081E090E001C0880F3A95EAF78095822356
:1007100088BB00E010E08AE0882E912CA12CB12C3F
:10072000F8806A817B818C819D81A5019401ACD286
:10073000021713071406150698F086B390E002C05E
:1007400095958795FA94E2F781709927DF91CF917B
:100750001F910F91FF90BF90AF909F908F90089541
:1007600086B390E00F2C02C0959587950A94E2F726
:1007700080FDE3CF85E38A95F1F700000F5F1F4FFF
:10078000CFCFFB018FEF808380E01FB80000873060
:1007900021F020B39081922B908300008F5F8830EE
:1007A000A1F780E090E008950F931F93CF93DF931C
:1007B000182FD92FC62F042F4ADF6C2F660F602BFE
:1007C000812F9D2F88DF880F991FDF91CF911F9177
:1007D0000F910895EF92FF920F931F93CF93DF93A2
:1007E0008C01C42F790140E0DFDF6C2FC80173DF7B
:1007F000EC01892B59F4B701C801C3DFCE01DF91A9
:10080000CF911F910F91FF90EF900895C2E0D0E03B
:10081000F5CF0F931F93CF93DF93D82FC92F042FBA
:10082000122F40E0C1DF602F8D2F9C2F54DF892BCA
:1008300041F4612F8D2F9C2FDF91CF911F910F914C
:100840004ACF82E090E0DF91CF911F910F91089500
:100850004DC27EC262C23AC272C250C2AB0121E036
:1008600030E0B90102C0660F771F8A95E2F7CB012D
:1008700042305105B1F058F4262F2095452B59F4FC
:1008800087B3822387BB88B3822388BB0895433014
:10089000510571F0089597B3292327BB98B3892B8D
:1008A000F4CF97B3982B97BB98B380958923EDCF5E
:1008B00097B3282F2095922397BB98B3922398BB88
:1008C00094B3892B84BB089597B321E030E001C035
:1008D000220F8A95EAF7922B97BB089597B321E0F0
:1008E00030E001C0220F8A95EAF72095922397BB4A
:1008F00088B3822388BB84B3822384BB089521E01C
:1009000030E0A90102C0440F551F8A95E2F7CA01E1
:1009100097B3282F2095922397BB98B3892B88BB38
:1009200084B3822384BB089521E030E0A90102C092
:10093000440F551F8A95E2F7CA0197B3282F2095D7
:10094000922397BB98B3922398BB94B3892B84BB13
:10095000089598B321E030E001C0220F8A95EAF7AC
:10096000922B98BB089598B321E030E001C0220F8C
:100970008A95EAF72095292328BB089521E030E0E5
:1009800001C0220F8A95EAF726BB089521E030E0E6
:10099000A90102C0440F551F8A95E2F7CA0198B316
:1009A0006130710519F4892B88BB089580958923DE
:1009B000FBCF26B330E002C0359527958A95E2F744
:1009C000822F8170992708959C019FB7F894F901AF
:1009D000EE0FFF1FE358FF4F6083718385B341E043
:1009E00050E0BA0102C0660F771F2A95E2F7862B06
:1009F00085BB8BB780628BBF86B380937C009FBF23
:100A000008959C014FB7F894FC01EE0FFF1FE358C7
:100A1000FF4F1182108235B381E090E001C0880F52
:100A20002A95EAF78095832385BB85B3811103C09E
:100A30008BB78F7D8BBF4FBF089566B320917C002D
:100A40002627FC0140E050E0822F90E09C01042E1C
:100A500002C0359527950A94E2F7217021934F5FE4
:100A60005F4F4630510591F760937C000895DF9207
:100A7000EF92FF920F931F93CF93DF93D6B2009123
:100A80007C000D258DE7E82E80E0F82EC0E0D0E058
:100A900010E0C8010C2E02C0959587950A94E2F7E4
:100AA00080FF07C0D701ED91FC91309711F0CE0186
:100AB00009952196B2E0EB0EF11CC630D10549F73D
:100AC000D0927C00DF91CF911F910F91FF90EF901A
:100AD000DF9008951F920F920FB60F9211242F935B
:100AE0003F934F935F936F937F938F939F93AF93B6
:100AF000BF93EF93FF93BBDFFF91EF91BF91AF9156
:100B00009F918F917F916F915F914F913F912F9125
:100B10000F900FBE0F901F9018958130910561F0D6
:100B20008230910569F0892B19F485B7877E85BFDE
:100B300085B7806285BF089585B7877E8860F7CFC7
:100B400085B7877E8061F3CF85B7806285BF889542
:100B500085B78F7D85BF08959B01019789309105E9
:100B600050F48A599F4FFC018081232B09F4806443
:100B7000886081BD089580E0F8CF81B5806481BD33
:100B8000089581B5877F81BD089590B5982B90BD5C
:100B9000089590B58095892380BD0895382FCA01A6
:100BA00023E0672B09F021E0206A2ABD33BFFC0156
:100BB000E757FF4F10820895FC01E757FF4F60830E
:100BC000892B11F469BD089568BD0895FC01E757AC
:100BD000FF4F808108959C018AB52115310539F4B4
:100BE0008F738ABD27573F4FF901108208958F7C7C
:100BF000F8CF9C012115310509F408958FE99FE094
:100C00000197F1F700C0000021503109F3CF9C019A
:100C10002115310509F4089585E08A95F1F7000062
:100C200021503109F5CFCDB7DEB72C970FB6F89428
:100C3000DEBF0FBECDBF86E0E0E6F0E0DE0111963C
:100C400001900D928A95E1F749815A816B817C81EF
:100C50008D819E810CDA2F83388749875A876B876D
:100C60007C872FEF87EA91E6215080409040E1F7A2
:100C700000C000006FE670E0CE010796B2DA8FE1A7
:100C80009EE40197F1F7F4CFA1E21A2EAA1BBB1B39
:100C9000FD010DC0AA1FBB1FEE1FFF1FA217B30748
:100CA000E407F50720F0A21BB30BE40BF50B661F5E
:100CB000771F881F991F1A9469F760957095809522
:100CC00090959B01AC01BD01CF010895DC01CB01E2
:100CD000FC01E199FECF06C0FFBBEEBBE09A319666
:100CE0000DB20D9241505040B8F70895E199FECFF2
:100CF0009FBB8EBBE09A99278DB30895DC01A40FAA
:100D0000B51F4150504040F0CB01840F951F2E91EC
:100D100005D041505040D8F70895262FE199FECFD5
:100D20009FBB8EBBE09A01970DB2021639F01CBA38
:100D30002DBB0FB6F894E29AE19A0FBE0895DC013C
:100D4000CB0102C02D9105D041505040D8F70895F5
:100D5000262FE199FECF1CBA9FBB8EBB2DBB0FB6D1
:100D6000F894E29AE19A0FBE01960895F894FFCFA5
:100D700000018025000002010000002424242448F2
:060D8000656C6C6F0000C1
:00000001FF
