:100000000EC028C0D5C626C025C024C023C022C02B
:1000100086C520C01FC01EC01DC01CC01BC011242F
:100020001FBECFE5D2E0DEBFCDBF10E0A0E6B0E05E
:10003000E0E8F1E102C005900D92A637B107D9F7CB
:1000400020E0A6E7B0E001C01D92AC38B207E1F7AE
:1000500058D794C8D5CF9C012115310509F40895CE
:1000600085E08A95F1F7000021503109F5CFCF9353
:10007000DF93CDB7DEB72D970FB6F894DEBF0FBE76
:10008000CDBF342F488759876A877B878C879D87A8
:1000900047B381E090E0BC01032E01C0660F0A94D3
:1000A000EAF7462B47BB47B3052E01C0880F0A94D9
:1000B000EAF7982F9095942397BB98B3962B98BB0B
:1000C00098B3892B88BB3887598786E0FE0138961C
:1000D000A6E7B0E001900D928A95E1F787E0E6E7A8
:1000E000F0E0DE01119601900D928A95E1F72981E9
:1000F0003A814B815C816D817E818F8190E02D966C
:100100000FB6F894DEBF0FBECDBFDF91CF9108953B
:100110006F927F928F929F92AF92BF92CF92DF9217
:10012000EF92FF920F931F93CF93DF93EC01062F73
:100130002A813B814C815D8160E472E48FE090E034
:10014000ABD749015A01390128B3388181E090E0E9
:1001500001C0880F3A95EAF78095822388BBC401D5
:100160007ADFE12CF12CCC24C394D12C10E08881CF
:10017000960102C0220F331F8A95E2F7C901980148
:100180000E2C02C0359527950A94E2F798B320FF0C
:1001900025C0892B88BBC3015EDF3FEFE31AF30A5A
:1001A00088E0E816F10419F788B3988121E030E07F
:1001B00001C0220F9A95EAF7822B88BBC401DF9118
:1001C000CF911F910F91FF90EF90DF90CF90BF9054
:1001D000AF909F908F907F906F903DCF80958923B7
:1001E000D9CF0F931F93CF93DF93182F092FEB01D4
:1001F0006991611105C0DF91CF911F910F91089511
:10020000812F902F85DFF4CF2F923F924F925F92F4
:100210006F927F928F929F92AF92BF92CF92DF9216
:10022000EF92FF920F931F93CF93DF93EC011B018B
:1002300049015A014A805B806C807D80C12CD12CA1
:100240007601C814D904EA04FB0411F480E03BC031
:1002500086B390E0298102C0959587952A95E2F7AB
:1002600080FD44C060E472E48FE090E0A30192015D
:1002700013D749015A013901C90196958795EBDEDB
:1002800000E010E0512CCC24C394D12CC301E3DE58
:1002900086B390E0298102C0959587952A95E2F76B
:1002A00080FF07C0C601002E01C0880F0A94EAF73C
:1002B000582A0F5F1F4F0830110541F7C401CBDEEC
:1002C000F101508281E0DF91CF911F910F91FF905A
:1002D000EF90DF90CF90BF90AF909F908F907F90E6
:1002E0006F905F904F903F902F90089581E090E045
:1002F000B2DEFFEFCF1ADF0AEF0AFF0AA2CF26B362
:1003000030E0FC018181A90102C0559547958A958D
:10031000E2F7CA018095909581700895BA98C29AC3
:100320000895B898C09A0895B89AC09808958AE038
:1003300000008A95E9F70895CF93DF93C82F8FEFD8
:100340008FB980EF8EB9B898C09ADBE2DDB9B29B65
:10035000FECFDDB9B299FECFEADF769BF7CF8FB142
:10036000C195CFB99EEF9EB99BE29DB9B29BFECFDE
:100370009BE29DB9B299FECFB89AC09ADF91CF9116
:100380000895CF938FB980EF8EB9CBE2CDB9B29BF0
:10039000FECFCDB9B299FECFCADF769BF7CFB89822
:1003A000C09A8FEF8FB98EEF8EB98BE28DB9B29B69
:1003B000FECF86B381709BE29DB9B299FECFB89A09
:1003C000CF910895CF93DF93CDB7DEB762970FB685
:1003D000F894DEBF0FBECDBF4D875E876F87788BE9
:1003E000898B9A8B9BDF9DDF8FE99FE00197F1F767
:1003F00000C0000086E0FE013D96DE0117960190E8
:100400000D928A95E1F786E0FE013796DE0111969E
:1004100001900D928A95E1F729813A814B815C81A7
:100420006D817E8180E090E062960FB6F894DEBF29
:100430000FBECDBFDF91CF91089570DF72DF77DF00
:1004400073DF75DFBA9AC29872DF80E090E008959A
:100450006BDF6DDF63DF6BDF64DF69DF80E090E01F
:100460000895862F8EDF90E00895862F8ADF90E032
:100470000895CF93DF93EB0180E05EDF888380E017
:1004800090E0DF91CF910895CF93DF93C62FD42FC3
:10049000D4DF8C2F880F8D2B74DF90E0DF91CF910C
:1004A0000895EF92FF920F931F93CF93DF93D82F6E
:1004B000C92F162F042F790140E0E6DF892B51F078
:1004C00001E010E0C801DF91CF911F910F91FF90E3
:1004D000EF900895802F55DF8111F2CF8D2F9C2F43
:1004E000ACDF41E0612F8D2F9C2FCEDF8C01892B5B
:1004F00039F781E021DFF70180838D2F9C2FA8DF62
:10050000E1CFEF92FF920F931F93CF93DF938C0174
:10051000E42EF22E40E0B8DFEC01892B51F0C1E06F
:10052000D0E0CE01DF91CF911F910F91FF90EF901E
:1005300008958E2D26DF8111F2CF8F2D22DF8111BC
:10054000EECFC80185DFEDCFFF920F931F93CF93BE
:10055000DF93CDB7DEB765970FB6F894DEBF0FBE59
:10056000CDBFF22E2F87032F388B142F498B5A8B38
:100570006B8B7C8B8D8B6A897B8927B3E1E0F0E004
:10058000CF010F2C01C0880F0A94EAF7AF0101C018
:10059000440F3A95EAF7842B982F922B97BB27B3F9
:1005A000012E01C0EE0F0A94EAF79E2F9095922338
:1005B00097BB98B38E2B8095892388BB62307105D9
:1005C00021F0A8F561157105B1F588E18DB9FF86B7
:1005D000088B198B7B8B6A8B87E0FE013F96DE01CF
:1005E000189601900D928A95E1F7F88609871A8787
:1005F0007C876B8787E0FE013896DE0111960190BB
:100600000D928A95E1F729813A814B815C816D8158
:100610007E818F8190E065960FB6F894DEBF0FBEA5
:10062000CDBFDF91CF911F910F91FF90089580E191
:100630006330710559F68CE1C9CF6FB980E48EB98A
:100640008FB7F8948BE18DB9769BFECFFCCFFB0181
:10065000232B11F06081F1DF0895FB01452B11F090
:100660006081EBDF08950F931F93CF93DF93EC012D
:10067000162F8B819C81E1DE892B59F440E06A8141
:100680008B819C8101DF9C018B819C81232B41F01C
:10069000DFDE81E090E0DF91CF911F910F9108950F
:1006A00060E4DFDE9C018B819C81232B89F7612F25
:1006B000D8DE8C018B819C81CBDE81E0012B51F750
:1006C00080E0E8CF0F931F93CF93DF93EC01162FB9
:1006D0008B819C81B2DE892B59F440E06A818B8149
:1006E0009C81D2DE9C018B819C81232B41F0B0DE6A
:1006F00081E090E0DF91CF911F910F91089560E02C
:10070000B0DE9C018B819C81232B89F7612FA9DEB0
:100710008C018B819C819CDE81E0012B51F780E074
:10072000E8CFEF92FF920F931F93CF93DF93D82FD1
:10073000C92FE62E142FF22E6AE2C4DF892B41F571
:100740006E2D8D2F9C2F8FDF892B11F56F2D8D2F07
:100750009C2F89DF892BE1F46BE28D2F9C2FB2DF78
:10076000892BB1F4612F8D2F9C2F7DDF892B81F494
:10077000602F8D2F9C2F77DF892B51F46CE28D2F0A
:100780009C2FDF91CF911F910F91FF90EF909ACF07
:1007900081E090E0DF91CF911F910F91FF90EF905A
:1007A0000895BF92CF92DF92EF92FF920F931F9323
:1007B000CF93DF93EC01B62EE880F9800FEF0F0D99
:1007C0002FEF2E0D40E060E0ACDF8C01892B69F04B
:1007D00001E010E0C801DF91CF911F910F91FF90D0
:1007E000EF90DF90CF90BF9008956F2D70E08E2D29
:1007F00090E041D47C01C12CD12CCE14DF0451F304
:100800006B2DCE0130DF892B19F78FEFC81AD80A6C
:10081000F4CF8F929F92AF92BF92CF92DF92EF92DE
:100820000F931F93CF93DF935C01C62EC42F122F1B
:10083000D02FFC019081691708F04AC081814817C8
:1008400008F046C0291710F01FEF190FD81710F045
:10085000DFEFD80F1C1518F0812F1C2DC82EDC17C8
:1008600018F08D2FDC2FC82F0C2F2C2D4D2F612F22
:10087000C50157DF4C01892B81F088248394912C8A
:10088000C401DF91CF911F910F91EF90DF90CF9036
:10089000BF90AF909F908F900895C11ADD08FFEF31
:1008A000CF1ADF0ACD1BDD0B8E010F5F1F4FC0E09B
:1008B000C017110628F7D0E006C06E2DC501D3DEA3
:1008C000892BD9F6DF5FDC151D04B8F3CF5FF0CFBD
:1008D00083E0882E912CD4CF6FEAF4CE0F931F9330
:1008E000CF93DF9300D000D00F92CDB7DEB78C014D
:1008F00029833A834B835C836D8385E0FE013196C7
:10090000D80101900D928A95E1F7F80115828FE3E5
:100910009CE90197F1F700C000006EEAC801D2DE41
:10092000892B09F08AC061E8C801CCDE892B09F067
:1009300084C06FE7C80197DE892B09F07EC068EAA2
:10094000C801C0DE892B09F078C06A816150C801F6
:100950008ADE892B09F071C063EDC801B3DE892BF3
:1009600009F06BC060E0C8017EDE892B09F065C02C
:1009700060E4C801A7DE892B09F05FC061EAC80105
:10098000A1DE892B09F059C068ECC8019BDE892BD8
:1009900009F053C06AEDC80195DE892B09F04DC0FE
:1009A00062E1C80160DE892B09F047C065EDC8012E
:1009B00089DE892B09F041C060E8C80154DE892B2B
:1009C000E1F569EDC8017EDE892BB9F561EFC8015B
:1009D0004ADE892B91F56BEDC80174DE892B69F530
:1009E00060E4C80140DE892B41F560E2C8016ADE9F
:1009F000892B19F560E0C80136DE892BF1F464EA31
:100A0000C80160DE892BC9F466EAC8015BDE892B68
:100A1000A1F460E070E0C801C4DE892B71F481E0CC
:100A2000F8018583C8010F900F900F900F900F90E1
:100A3000DF91CF911F910F914FCF81E090E00F9008
:100A40000F900F900F900F90DF91CF911F910F910A
:100A500008956EEA37CECF93DF9300D000D000D058
:100A6000CDB7DEB7FC01AB0180E4E130F10541F028
:100A700081E0E330F10509F080E0879588278795CC
:100A8000806287B946B99F016D816E7F70E080E01A
:100A900090E00F900F900F900F900F900F90DF91BC
:100AA000CF910895379A0895FC01379884818E7FFD
:100AB00084830895FC0187B1807F682B67B9369ADB
:100AC0003699FECF84B195B115820895FC018481D9
:100AD00080FD09C087B1807F862B87B9369A8481D3
:100AE00081608483658381E090E00895FC01DB01EF
:100AF00036990EC0349B0CC084B195B1109711F09B
:100B00008D939C9384818E7F848380E090E0089510
:100B100081E090E00895FC018481817008958F93B5
:100B20009F9384B195B19F918F911895E7C218C397
:100B3000FCC2D4C20CC3EAC2AB0121E030E0B9016F
:100B400002C0660F771F8A95E2F7CB01423051054C
:100B5000B1F058F4262F2095452B59F487B3822302
:100B600087BB88B3822388BB08954330510571F059
:100B7000089597B3292327BB98B3892BF4CF97B354
:100B8000982B97BB98B380958923EDCF97B3282FE7
:100B90002095922397BB98B3922398BB94B3892B4B
:100BA00084BB089597B321E030E001C0220F8A95FD
:100BB000EAF7922B97BB089597B321E030E001C08C
:100BC000220F8A95EAF72095922397BB88B3822358
:100BD00088BB84B3822384BB089521E030E0A9015F
:100BE00002C0440F551F8A95E2F7CA0197B3282F18
:100BF0002095922397BB98B3892B88BB84B382231B
:100C000084BB089521E030E0A90102C0440F551FC4
:100C10008A95E2F7CA0197B3282F2095922397BBB4
:100C200098B3922398BB94B3892B84BB089598B34F
:100C300021E030E001C0220F8A95EAF7922B98BBA1
:100C4000089598B321E030E001C0220F8A95EAF7B9
:100C50002095292328BB089521E030E001C0220F10
:100C60008A95EAF726BB089521E030E0A90102C089
:100C7000440F551F8A95E2F7CA0198B36130710598
:100C800019F4892B88BB089580958923FBCF26B35F
:100C900030E002C0359527958A95E2F7822F817062
:100CA000992708959C019FB7F894F901EE0FFF1F53
:100CB000E258FF4F6083718385B341E050E0BA0191
:100CC00002C0660F771F2A95E2F7862B85BB8BB78C
:100CD00080628BBF86B380937D009FBF08959C0187
:100CE0004FB7F894FC01EE0FFF1FE258FF4F11823F
:100CF000108235B381E090E001C0880F2A95EAF7B1
:100D00008095832385BB85B3811103C08BB78F7D0D
:100D10008BBF4FBF089566B320917D002627FC014D
:100D200040E050E0822F90E09C01042E02C03595F7
:100D300027950A94E2F7217021934F5F5F4F463069
:100D4000510591F760937D000895DF92EF92FF9235
:100D50000F931F93CF93DF93D6B200917D000D25A3
:100D60008EE7E82E80E0F82EC0E0D0E010E0C80169
:100D70000C2E02C0959587950A94E2F780FF07C074
:100D8000D701ED91FC91309711F0CE010995219694
:100D9000B2E0EB0EF11CC630D10549F7D0927D00D0
:100DA000DF91CF911F910F91FF90EF90DF90089509
:100DB0001F920F920FB60F9211242F933F934F93D0
:100DC0005F936F937F938F939F93AF93BF93EF93B3
:100DD000FF93BBDFFF91EF91BF91AF919F918F91F7
:100DE0007F916F915F914F913F912F910F900FBE27
:100DF0000F901F9018958130910561F08230910518
:100E000069F0892B19F485B7877E85BF85B7806225
:100E100085BF089585B7877E8860F7CF85B7877EC1
:100E20008061F3CF85B7806285BF889585B78F7D58
:100E300085BF08959B0101978930910550F48A5927
:100E40009F4FFC018081232B09F48064886081BD61
:100E5000089580E0F8CF81B5806481BD089581B5A3
:100E6000877F81BD089590B5982B90BD089590B56A
:100E70008095892380BD0895382FCA0123E0672B10
:100E800009F021E0206A2ABD33BFFC01E657FF4F7D
:100E900010820895FC01E657FF4F6083892B11F4FF
:100EA00069BD089568BD0895FC01E657FF4F808134
:100EB00008959C018AB52115310539F48F738ABDD7
:100EC00026573F4FF901108208958F7CF8CF9C017F
:100ED0002115310509F408958FE99FE00197F1F795
:100EE00000C0000021503109F3CF9C0121153105CC
:100EF00009F4089585E08A95F1F700002150310941
:100F0000F5CFCDB7DEB767970FB6F894DEBF0FBE4B
:100F1000CDBF86E0E0E6F0E0DE01119601900D9293
:100F20008A95E1F749815A816B817C818D819E810F
:100F300049DA2D873E874F87588B698B7A8B2FEF45
:100F400081EE94E0215080409040E1F700C0000025
:100F500093E0F92E20E8822E30E4732E4CE3642EC9
:100F60008E01035F1F4F5E01E7E0AE0EB11C8B8A5E
:100F70007C8A6D8A502F612F1F8B0E8B20E830E406
:100F80004CE3C501ABDC9C018FE39CE90197F1F7D1
:100F900000C00000902EE12E6501232BC1F19FEFD0
:100FA000E1EEF4E09150E040F040E1F700C00000D5
:100FB000FA94E9F6C80141DA9C018FE39CE90197B4
:100FC000F1F700C00000232B11F585E0EFE6F0E01B
:100FD000DE01539601900D928A95E1F78E010D5E28
:100FE0001F4F5E0198E1A90EB11CF80161918F01BC
:100FF000892D9E2D36DA8FE99FE00197F1F700C029
:1010000000000A151B0589F7892D9E2D21DA9FEF17
:10101000E7EAF1E69150E040F040E1F700C000005F
:101020002FEF81EE94E0215080409040E1F700C026
:101030000000C60151DCEFEFF3EC29E0E150F04095
:101040002040E1F700C0000060E070E0C601A9DBCD
:101050008FEF91EEE4E081509040E040E1F700C076
:101060000000EE24EA94F12C05E325E74AE06AE06B
:10107000C601CFDBD5CF0024552704C0080E591F69
:10108000880F991F009729F076956795B8F3710539
:10109000B9F7802D952F0895A1E21A2EAA1BBB1B2C
:1010A000FD010DC0AA1FBB1FEE1FFF1FA217B30734
:1010B000E407F50720F0A21BB30BE40BF50B661F4A
:1010C000771F881F991F1A9469F76095709580950E
:1010D00090959B01AC01BD01CF010895DC01CB01CE
:1010E000FC01E199FECF06C0FFBBEEBBE09A319652
:1010F0000DB20D9241505040B8F70895E199FECFDE
:101100009FBB8EBBE09A99278DB30895DC01A40F95
:10111000B51F4150504040F0CB01840F951F2E91D8
:1011200005D041505040D8F70895262FE199FECFC1
:101130009FBB8EBBE09A01970DB2021639F01CBA24
:101140002DBB0FB6F894E29AE19A0FBE0895DC0128
:10115000CB0102C02D9105D041505040D8F70895E1
:10116000262FE199FECF1CBA9FBB8EBB2DBB0FB6BD
:10117000F894E29AE19A0FBE01960895F894FFCF91
:10118000000210270000020100000024242424AEE5
:06119000D580A83F00001D
:00000001FF
