:100000000EC01DC01CC01BC01AC019C018C017C02C
:1000100016C015C048C013C012C011C010C01124B2
:100020001FBECFE5D2E0DEBFCDBF20E0A0E6B0E04E
:1000300001C01D92AC36B207E1F7FAD02AC1E0CF79
:1000400097B321E030E001C0220F8A95EAF72095AE
:10005000292327BBB19A089526B330E002C0359515
:1000600027958A95E2F7822F817099270895F89451
:1000700081E08ABD89EF89BD8FEF88BD12BE8AE11C
:1000800088BF83B7836083BF80E189BF7894089578
:10009000F894609168007091690080916A00909175
:1000A0006B00789408951F920F920FB60F9211244F
:1000B0000F931F932F933F934F935F936F937F9370
:1000C0008F939F93AF93BF93EF93FF9380916800BB
:1000D00090916900A0916A00B0916B000196A11DFA
:1000E000B11D8093680090936900A0936A00B0935B
:1000F0006B00CEDF462F572FBC018091640090919A
:100100006500A0916600B09167008A019B01081B01
:10011000190B2A0B3B0BD901C801883E9340A1055E
:10012000B10560F088B394E0892788BB40936400F0
:10013000509365006093660070936700FF91EF91A4
:10014000BF91AF919F918F917F916F915F914F91EF
:100150003F912F911F910F910F900FBE0F901F9005
:10016000189597B321E030E001C0220F8A95EAF795
:10017000922B97BB0895CF93DF9300D000D000D08F
:10018000CDB7DEB7842F5A836B837C83EADF8A8105
:10019000E8DF8B81E6DF8C810F900F900F900F903E
:1001A0000F900F90DF91CF91DCCF98B321E030E03A
:1001B00001C0220F8A95EAF7922B98BB089598B355
:1001C00021E030E001C0220F8A95EAF7209529232B
:1001D00028BB0895CF93C82FE8DF2FEF83ED90E37E
:1001E000215080409040E1F700C000008C2FE7DFF5
:1001F0002FEF83ED90E3215080409040E1F700C065
:100200000000CF9108959C018230910579F03CF473
:10021000892B51F085E02130310539F0089584E0D3
:100220002330310511F0089582E0D4CF83E0FDCF73
:100230001EDF82E096DF83E094DF81E001DFC8E02B
:1002400081E00ADF892BE1F723DF462F572FBC011E
:100250008091600090916100A0916200B091630074
:100260008A019B01081B190B2A0B3B0BD901C80102
:10027000883E9340A105B10518F388B38C2788BB4D
:10028000409360005093610060936200709363003C
:06029000D7CFF894FFCF68
:100296000E23003800504F52544200000000000068
:1002A6000000000000000000000000000000000048
:1002B60000000000000E2300530054434352304216
:1002C6000000000000000000000000000000000028
:1002D600000000000000000000000E230052005441
:1002E600434E5430000000000000000000000000F3
:0F02F600000000000000000000000000000000F9
:00000001FF
